{
  "contractName": "EMRContract",
  "abi": [
    {
      "inputs": [],
      "payable": false,
      "stateMutability": "nonpayable",
      "type": "constructor"
    },
    {
      "anonymous": false,
      "inputs": [
        {
          "indexed": true,
          "internalType": "uint256",
          "name": "index",
          "type": "uint256"
        },
        {
          "indexed": false,
          "internalType": "address",
          "name": "sender",
          "type": "address"
        }
      ],
      "name": "eAppointmentAdd",
      "type": "event"
    },
    {
      "anonymous": false,
      "inputs": [
        {
          "indexed": true,
          "internalType": "uint256",
          "name": "index",
          "type": "uint256"
        },
        {
          "indexed": false,
          "internalType": "address",
          "name": "sender",
          "type": "address"
        }
      ],
      "name": "eAppointmentUpdate",
      "type": "event"
    },
    {
      "constant": true,
      "inputs": [],
      "name": "AppointmentIndex",
      "outputs": [
        {
          "internalType": "uint256",
          "name": "",
          "type": "uint256"
        }
      ],
      "payable": false,
      "stateMutability": "view",
      "type": "function"
    },
    {
      "constant": true,
      "inputs": [],
      "name": "MedicalReportIndex",
      "outputs": [
        {
          "internalType": "uint256",
          "name": "",
          "type": "uint256"
        }
      ],
      "payable": false,
      "stateMutability": "view",
      "type": "function"
    },
    {
      "constant": true,
      "inputs": [
        {
          "internalType": "address",
          "name": "",
          "type": "address"
        }
      ],
      "name": "administrator",
      "outputs": [
        {
          "internalType": "bool",
          "name": "",
          "type": "bool"
        }
      ],
      "payable": false,
      "stateMutability": "view",
      "type": "function"
    },
    {
      "constant": true,
      "inputs": [
        {
          "internalType": "uint256",
          "name": "",
          "type": "uint256"
        }
      ],
      "name": "appointments",
      "outputs": [
        {
          "internalType": "uint256",
          "name": "index",
          "type": "uint256"
        },
        {
          "internalType": "address",
          "name": "patient",
          "type": "address"
        },
        {
          "internalType": "uint256",
          "name": "datetime",
          "type": "uint256"
        },
        {
          "internalType": "enum EMRContract.AppointmentStat",
          "name": "stat",
          "type": "uint8"
        },
        {
          "internalType": "string",
          "name": "remark",
          "type": "string"
        }
      ],
      "payable": false,
      "stateMutability": "view",
      "type": "function"
    },
    {
      "constant": true,
      "inputs": [
        {
          "internalType": "uint256",
          "name": "",
          "type": "uint256"
        }
      ],
      "name": "medicalreports",
      "outputs": [
        {
          "internalType": "string",
          "name": "docname",
          "type": "string"
        },
        {
          "internalType": "string",
          "name": "docpath",
          "type": "string"
        },
        {
          "internalType": "string",
          "name": "docdesp",
          "type": "string"
        },
        {
          "internalType": "bool",
          "name": "isActive",
          "type": "bool"
        },
        {
          "internalType": "uint256",
          "name": "index",
          "type": "uint256"
        }
      ],
      "payable": false,
      "stateMutability": "view",
      "type": "function"
    },
    {
      "constant": true,
      "inputs": [],
      "name": "owner",
      "outputs": [
        {
          "internalType": "address",
          "name": "",
          "type": "address"
        }
      ],
      "payable": false,
      "stateMutability": "view",
      "type": "function"
    },
    {
      "constant": true,
      "inputs": [
        {
          "internalType": "address",
          "name": "",
          "type": "address"
        }
      ],
      "name": "patients",
      "outputs": [
        {
          "internalType": "address",
          "name": "client",
          "type": "address"
        },
        {
          "internalType": "string",
          "name": "fullname",
          "type": "string"
        },
        {
          "internalType": "string",
          "name": "dob",
          "type": "string"
        },
        {
          "internalType": "enum EMRContract.SexType",
          "name": "sex",
          "type": "uint8"
        },
        {
          "internalType": "enum EMRContract.MaritalType",
          "name": "marital",
          "type": "uint8"
        },
        {
          "internalType": "string",
          "name": "email",
          "type": "string"
        }
      ],
      "payable": false,
      "stateMutability": "view",
      "type": "function"
    },
    {
      "constant": true,
      "inputs": [],
      "name": "version",
      "outputs": [
        {
          "internalType": "string",
          "name": "",
          "type": "string"
        }
      ],
      "payable": false,
      "stateMutability": "view",
      "type": "function"
    },
    {
      "constant": false,
      "inputs": [
        {
          "internalType": "string",
          "name": "_version",
          "type": "string"
        }
      ],
      "name": "UpdateVersion",
      "outputs": [],
      "payable": false,
      "stateMutability": "nonpayable",
      "type": "function"
    },
    {
      "constant": false,
      "inputs": [
        {
          "internalType": "address",
          "name": "_admin",
          "type": "address"
        }
      ],
      "name": "SetAdministrator",
      "outputs": [],
      "payable": false,
      "stateMutability": "nonpayable",
      "type": "function"
    },
    {
      "constant": false,
      "inputs": [
        {
          "internalType": "string",
          "name": "_fullname",
          "type": "string"
        },
        {
          "internalType": "string",
          "name": "_dob",
          "type": "string"
        },
        {
          "internalType": "enum EMRContract.SexType",
          "name": "_sex",
          "type": "uint8"
        },
        {
          "internalType": "enum EMRContract.MaritalType",
          "name": "_marital",
          "type": "uint8"
        },
        {
          "internalType": "string",
          "name": "_email",
          "type": "string"
        },
        {
          "internalType": "uint256[]",
          "name": "_medicalreport",
          "type": "uint256[]"
        }
      ],
      "name": "SignupPatient",
      "outputs": [],
      "payable": false,
      "stateMutability": "nonpayable",
      "type": "function"
    },
    {
      "constant": false,
      "inputs": [
        {
          "internalType": "string",
          "name": "_fullname",
          "type": "string"
        },
        {
          "internalType": "string",
          "name": "_dob",
          "type": "string"
        },
        {
          "internalType": "enum EMRContract.SexType",
          "name": "_sex",
          "type": "uint8"
        },
        {
          "internalType": "enum EMRContract.MaritalType",
          "name": "_marital",
          "type": "uint8"
        },
        {
          "internalType": "string",
          "name": "_email",
          "type": "string"
        }
      ],
      "name": "PatientUpdate",
      "outputs": [],
      "payable": false,
      "stateMutability": "nonpayable",
      "type": "function"
    },
    {
      "constant": false,
      "inputs": [
        {
          "internalType": "uint256",
          "name": "_datetime",
          "type": "uint256"
        },
        {
          "internalType": "enum EMRContract.AppointmentStat",
          "name": "_stat",
          "type": "uint8"
        },
        {
          "internalType": "string",
          "name": "_remark",
          "type": "string"
        }
      ],
      "name": "AppointmentAdd",
      "outputs": [],
      "payable": false,
      "stateMutability": "nonpayable",
      "type": "function"
    },
    {
      "constant": false,
      "inputs": [
        {
          "internalType": "uint256",
          "name": "_AppointmentIndex",
          "type": "uint256"
        },
        {
          "internalType": "enum EMRContract.AppointmentStat",
          "name": "_stat",
          "type": "uint8"
        },
        {
          "internalType": "string",
          "name": "_remark",
          "type": "string"
        }
      ],
      "name": "AppointmentUpdate",
      "outputs": [],
      "payable": false,
      "stateMutability": "nonpayable",
      "type": "function"
    },
    {
      "constant": true,
      "inputs": [],
      "name": "AppointmentGet",
      "outputs": [
        {
          "internalType": "uint256[]",
          "name": "",
          "type": "uint256[]"
        }
      ],
      "payable": false,
      "stateMutability": "view",
      "type": "function"
    },
    {
      "constant": false,
      "inputs": [
        {
          "internalType": "address payable",
          "name": "_receiver",
          "type": "address"
        }
      ],
      "name": "payment",
      "outputs": [],
      "payable": true,
      "stateMutability": "payable",
      "type": "function"
    },
    {
      "constant": false,
      "inputs": [
        {
          "internalType": "string",
          "name": "_docname",
          "type": "string"
        },
        {
          "internalType": "string",
          "name": "_docpath",
          "type": "string"
        },
        {
          "internalType": "string",
          "name": "_docdesp",
          "type": "string"
        }
      ],
      "name": "MedicalReportAdd",
      "outputs": [],
      "payable": false,
      "stateMutability": "nonpayable",
      "type": "function"
    },
    {
      "constant": true,
      "inputs": [
        {
          "internalType": "address",
          "name": "_addr",
          "type": "address"
        }
      ],
      "name": "MedicalReportGet",
      "outputs": [
        {
          "internalType": "uint256[]",
          "name": "",
          "type": "uint256[]"
        }
      ],
      "payable": false,
      "stateMutability": "view",
      "type": "function"
    },
    {
      "constant": false,
      "inputs": [],
      "name": "kill",
      "outputs": [],
      "payable": false,
      "stateMutability": "nonpayable",
      "type": "function"
    }
  ],
  "bytecode": "0x60806040526040518060400160405280600581526020017f302e302e310000000000000000000000000000000000000000000000000000008152506007908051906020019062000051929190620000ff565b503480156200005f57600080fd5b5033600660006101000a81548173ffffffffffffffffffffffffffffffffffffffff021916908373ffffffffffffffffffffffffffffffffffffffff1602179055506001600260003373ffffffffffffffffffffffffffffffffffffffff1673ffffffffffffffffffffffffffffffffffffffff16815260200190815260200160002060006101000a81548160ff021916908315150217905550620001ae565b828054600181600116156101000203166002900490600052602060002090601f016020900481019282601f106200014257805160ff191683800117855562000173565b8280016001018555821562000173579182015b828111156200017257825182559160200191906001019062000155565b5b50905062000182919062000186565b5090565b620001ab91905b80821115620001a75760008160009055506001016200018d565b5090565b90565b6129e880620001be6000396000f3fe6080604052600436106101145760003560e01c806363fe51a9116100a0578063d22a225511610064578063d22a225514610c24578063e1d1721814610dc2578063f4fe9fad14610e68578063f7b2b0ca14610ed1578063fdf382381461117557610114565b806363fe51a9146108055780638da5cb5b146108e4578063925755ff1461093b5780639cdf8e8214610b31578063c96e830414610b5c57610114565b80633b92f3df116100e75780633b92f3df1461068357806341c0e1b5146106c75780634c32abbf146106de57806354fd4d50146107095780635e9881161461079957610114565b80630869cfbc1461011957806312dc9013146103185780632018ff151461042257806321ad6c3a14610473575b600080fd5b34801561012557600080fd5b506101686004803603602081101561013c57600080fd5b81019080803573ffffffffffffffffffffffffffffffffffffffff169060200190929190505050611254565b604051808773ffffffffffffffffffffffffffffffffffffffff1673ffffffffffffffffffffffffffffffffffffffff16815260200180602001806020018660018111156101b257fe5b60ff1681526020018560058111156101c657fe5b60ff16815260200180602001848103845289818151815260200191508051906020019080838360005b8381101561020a5780820151818401526020810190506101ef565b50505050905090810190601f1680156102375780820380516001836020036101000a031916815260200191505b50848103835288818151815260200191508051906020019080838360005b83811015610270578082015181840152602081019050610255565b50505050905090810190601f16801561029d5780820380516001836020036101000a031916815260200191505b50848103825285818151815260200191508051906020019080838360005b838110156102d65780820151818401526020810190506102bb565b50505050905090810190601f1680156103035780820380516001836020036101000a031916815260200191505b50995050505050505050505060405180910390f35b34801561032457600080fd5b506103516004803603602081101561033b57600080fd5b8101908080359060200190929190505050611492565b604051808681526020018573ffffffffffffffffffffffffffffffffffffffff1673ffffffffffffffffffffffffffffffffffffffff16815260200184815260200183600481111561039f57fe5b60ff16815260200180602001828103825283818151815260200191508051906020019080838360005b838110156103e35780820151818401526020810190506103c8565b50505050905090810190601f1680156104105780820380516001836020036101000a031916815260200191505b50965050505050505060405180910390f35b34801561042e57600080fd5b506104716004803603602081101561044557600080fd5b81019080803573ffffffffffffffffffffffffffffffffffffffff16906020019092919050505061158d565b005b34801561047f57600080fd5b50610681600480360360a081101561049657600080fd5b81019080803590602001906401000000008111156104b357600080fd5b8201836020820111156104c557600080fd5b803590602001918460018302840111640100000000831117156104e757600080fd5b91908080601f016020809104026020016040519081016040528093929190818152602001838380828437600081840152601f19601f8201169050808301925050505050505091929192908035906020019064010000000081111561054a57600080fd5b82018360208201111561055c57600080fd5b8035906020019184600183028401116401000000008311171561057e57600080fd5b91908080601f016020809104026020016040519081016040528093929190818152602001838380828437600081840152601f19601f820116905080830192505050505050509192919290803560ff169060200190929190803560ff169060200190929190803590602001906401000000008111156105fb57600080fd5b82018360208201111561060d57600080fd5b8035906020019184600183028401116401000000008311171561062f57600080fd5b91908080601f016020809104026020016040519081016040528093929190818152602001838380828437600081840152601f19601f820116905080830192505050505050509192919290505050611699565b005b6106c56004803603602081101561069957600080fd5b81019080803573ffffffffffffffffffffffffffffffffffffffff169060200190929190505050611968565b005b3480156106d357600080fd5b506106dc6119b2565b005b3480156106ea57600080fd5b506106f3611a25565b6040518082815260200191505060405180910390f35b34801561071557600080fd5b5061071e611a2b565b6040518080602001828103825283818151815260200191508051906020019080838360005b8381101561075e578082015181840152602081019050610743565b50505050905090810190601f16801561078b5780820380516001836020036101000a031916815260200191505b509250505060405180910390f35b3480156107a557600080fd5b506107ae611ac9565b6040518080602001828103825283818151815260200191508051906020019060200280838360005b838110156107f15780820151818401526020810190506107d6565b505050509050019250505060405180910390f35b34801561081157600080fd5b506108e26004803603606081101561082857600080fd5b8101908080359060200190929190803560ff1690602001909291908035906020019064010000000081111561085c57600080fd5b82018360208201111561086e57600080fd5b8035906020019184600183028401116401000000008311171561089057600080fd5b91908080601f016020809104026020016040519081016040528093929190818152602001838380828437600081840152601f19601f820116905080830192505050505050509192919290505050611c34565b005b3480156108f057600080fd5b506108f9611e59565b604051808273ffffffffffffffffffffffffffffffffffffffff1673ffffffffffffffffffffffffffffffffffffffff16815260200191505060405180910390f35b34801561094757600080fd5b50610b2f6004803603606081101561095e57600080fd5b810190808035906020019064010000000081111561097b57600080fd5b82018360208201111561098d57600080fd5b803590602001918460018302840111640100000000831117156109af57600080fd5b91908080601f016020809104026020016040519081016040528093929190818152602001838380828437600081840152601f19601f82011690508083019250505050505050919291929080359060200190640100000000811115610a1257600080fd5b820183602082011115610a2457600080fd5b80359060200191846001830284011164010000000083111715610a4657600080fd5b91908080601f016020809104026020016040519081016040528093929190818152602001838380828437600081840152601f19601f82011690508083019250505050505050919291929080359060200190640100000000811115610aa957600080fd5b820183602082011115610abb57600080fd5b80359060200191846001830284011164010000000083111715610add57600080fd5b91908080601f016020809104026020016040519081016040528093929190818152602001838380828437600081840152601f19601f820116905080830192505050505050509192919290505050611e7f565b005b348015610b3d57600080fd5b50610b466120ca565b6040518082815260200191505060405180910390f35b348015610b6857600080fd5b50610c2260048036036020811015610b7f57600080fd5b8101908080359060200190640100000000811115610b9c57600080fd5b820183602082011115610bae57600080fd5b80359060200191846001830284011164010000000083111715610bd057600080fd5b91908080601f016020809104026020016040519081016040528093929190818152602001838380828437600081840152601f19601f8201169050808301925050505050505091929192905050506120d0565b005b348015610c3057600080fd5b50610c5d60048036036020811015610c4757600080fd5b81019080803590602001909291905050506120ea565b6040518080602001806020018060200186151515158152602001858152602001848103845289818151815260200191508051906020019080838360005b83811015610cb5578082015181840152602081019050610c9a565b50505050905090810190601f168015610ce25780820380516001836020036101000a031916815260200191505b50848103835288818151815260200191508051906020019080838360005b83811015610d1b578082015181840152602081019050610d00565b50505050905090810190601f168015610d485780820380516001836020036101000a031916815260200191505b50848103825287818151815260200191508051906020019080838360005b83811015610d81578082015181840152602081019050610d66565b50505050905090810190601f168015610dae5780820380516001836020036101000a031916815260200191505b509850505050505050505060405180910390f35b348015610dce57600080fd5b50610e1160048036036020811015610de557600080fd5b81019080803573ffffffffffffffffffffffffffffffffffffffff1690602001909291905050506122f5565b6040518080602001828103825283818151815260200191508051906020019060200280838360005b83811015610e54578082015181840152602081019050610e39565b505050509050019250505060405180910390f35b348015610e7457600080fd5b50610eb760048036036020811015610e8b57600080fd5b81019080803573ffffffffffffffffffffffffffffffffffffffff16906020019092919050505061238e565b604051808215151515815260200191505060405180910390f35b348015610edd57600080fd5b50611173600480360360c0811015610ef457600080fd5b8101908080359060200190640100000000811115610f1157600080fd5b820183602082011115610f2357600080fd5b80359060200191846001830284011164010000000083111715610f4557600080fd5b91908080601f016020809104026020016040519081016040528093929190818152602001838380828437600081840152601f19601f82011690508083019250505050505050919291929080359060200190640100000000811115610fa857600080fd5b820183602082011115610fba57600080fd5b80359060200191846001830284011164010000000083111715610fdc57600080fd5b91908080601f016020809104026020016040519081016040528093929190818152602001838380828437600081840152601f19601f820116905080830192505050505050509192919290803560ff169060200190929190803560ff1690602001909291908035906020019064010000000081111561105957600080fd5b82018360208201111561106b57600080fd5b8035906020019184600183028401116401000000008311171561108d57600080fd5b91908080601f016020809104026020016040519081016040528093929190818152602001838380828437600081840152601f19601f820116905080830192505050505050509192919290803590602001906401000000008111156110f057600080fd5b82018360208201111561110257600080fd5b8035906020019184602083028401116401000000008311171561112457600080fd5b919080806020026020016040519081016040528093929190818152602001838360200280828437600081840152601f19601f8201169050808301925050505050505091929192905050506123ae565b005b34801561118157600080fd5b506112526004803603606081101561119857600080fd5b8101908080359060200190929190803560ff169060200190929190803590602001906401000000008111156111cc57600080fd5b8201836020820111156111de57600080fd5b8035906020019184600183028401116401000000008311171561120057600080fd5b91908080601f016020809104026020016040519081016040528093929190818152602001838380828437600081840152601f19601f820116905080830192505050505050509192919290505050612666565b005b60006020528060005260406000206000915090508060000160009054906101000a900473ffffffffffffffffffffffffffffffffffffffff1690806001018054600181600116156101000203166002900480601f0160208091040260200160405190810160405280929190818152602001828054600181600116156101000203166002900480156113265780601f106112fb57610100808354040283529160200191611326565b820191906000526020600020905b81548152906001019060200180831161130957829003601f168201915b505050505090806002018054600181600116156101000203166002900480601f0160208091040260200160405190810160405280929190818152602001828054600181600116156101000203166002900480156113c45780601f10611399576101008083540402835291602001916113c4565b820191906000526020600020905b8154815290600101906020018083116113a757829003601f168201915b5050505050908060030160009054906101000a900460ff16908060030160019054906101000a900460ff1690806004018054600181600116156101000203166002900480601f0160208091040260200160405190810160405280929190818152602001828054600181600116156101000203166002900480156114885780601f1061145d57610100808354040283529160200191611488565b820191906000526020600020905b81548152906001019060200180831161146b57829003601f168201915b5050505050905086565b60016020528060005260406000206000915090508060000154908060010160009054906101000a900473ffffffffffffffffffffffffffffffffffffffff16908060020154908060030160009054906101000a900460ff1690806004018054600181600116156101000203166002900480601f0160208091040260200160405190810160405280929190818152602001828054600181600116156101000203166002900480156115835780601f1061155857610100808354040283529160200191611583565b820191906000526020600020905b81548152906001019060200180831161156657829003601f168201915b5050505050905085565b600660009054906101000a900473ffffffffffffffffffffffffffffffffffffffff1673ffffffffffffffffffffffffffffffffffffffff163373ffffffffffffffffffffffffffffffffffffffff16146115e757600080fd5b600260008273ffffffffffffffffffffffffffffffffffffffff1673ffffffffffffffffffffffffffffffffffffffff16815260200190815260200160002060009054906101000a900460ff161561163e57600080fd5b6001600260008373ffffffffffffffffffffffffffffffffffffffff1673ffffffffffffffffffffffffffffffffffffffff16815260200190815260200160002060006101000a81548160ff02191690831515021790555050565b6000803373ffffffffffffffffffffffffffffffffffffffff1673ffffffffffffffffffffffffffffffffffffffff16815260200190815260200160002060000160009054906101000a900473ffffffffffffffffffffffffffffffffffffffff1673ffffffffffffffffffffffffffffffffffffffff163373ffffffffffffffffffffffffffffffffffffffff161461179b576040517f08c379a00000000000000000000000000000000000000000000000000000000081526004018080602001828103825260138152602001807f556e617574686f72697a6564206163636573730000000000000000000000000081525060200191505060405180910390fd5b846000803373ffffffffffffffffffffffffffffffffffffffff1673ffffffffffffffffffffffffffffffffffffffff16815260200190815260200160002060010190805190602001906117f0929190612841565b50836000803373ffffffffffffffffffffffffffffffffffffffff1673ffffffffffffffffffffffffffffffffffffffff1681526020019081526020016000206002019080519060200190611846929190612841565b50826000803373ffffffffffffffffffffffffffffffffffffffff1673ffffffffffffffffffffffffffffffffffffffff16815260200190815260200160002060030160006101000a81548160ff021916908360018111156118a457fe5b0217905550816000803373ffffffffffffffffffffffffffffffffffffffff1673ffffffffffffffffffffffffffffffffffffffff16815260200190815260200160002060030160016101000a81548160ff0219169083600581111561190657fe5b0217905550806000803373ffffffffffffffffffffffffffffffffffffffff1673ffffffffffffffffffffffffffffffffffffffff1681526020019081526020016000206004019080519060200190611960929190612841565b505050505050565b8073ffffffffffffffffffffffffffffffffffffffff166108fc349081150290604051600060405180830381858888f193505050501580156119ae573d6000803e3d6000fd5b5050565b600660009054906101000a900473ffffffffffffffffffffffffffffffffffffffff1673ffffffffffffffffffffffffffffffffffffffff163373ffffffffffffffffffffffffffffffffffffffff1614611a0c57600080fd5b3373ffffffffffffffffffffffffffffffffffffffff16ff5b60055481565b60078054600181600116156101000203166002900480601f016020809104026020016040519081016040528092919081815260200182805460018160011615610100020316600290048015611ac15780601f10611a9657610100808354040283529160200191611ac1565b820191906000526020600020905b815481529060010190602001808311611aa457829003601f168201915b505050505081565b606080600454604051908082528060200260200182016040528015611afd5781602001602082028038833980820191505090505b50905060008090506000600190505b6004548111611bae573373ffffffffffffffffffffffffffffffffffffffff166001600083815260200190815260200160002060010160009054906101000a900473ffffffffffffffffffffffffffffffffffffffff1673ffffffffffffffffffffffffffffffffffffffff161415611ba15780838381518110611b8c57fe5b60200260200101818152505081806001019250505b8080600101915050611b0c565b50606081604051908082528060200260200182016040528015611be05781602001602082028038833980820191505090505b50905060008090505b82811015611c2a57838181518110611bfd57fe5b6020026020010151828281518110611c1157fe5b6020026020010181815250508080600101915050611be9565b5080935050505090565b6000803373ffffffffffffffffffffffffffffffffffffffff1673ffffffffffffffffffffffffffffffffffffffff16815260200190815260200160002060000160009054906101000a900473ffffffffffffffffffffffffffffffffffffffff1673ffffffffffffffffffffffffffffffffffffffff163373ffffffffffffffffffffffffffffffffffffffff1614611ccd57600080fd5b428311611cd957600080fd5b6004600081548092919060010191905055506040518060a0016040528060045481526020013373ffffffffffffffffffffffffffffffffffffffff168152602001848152602001836004811115611d2c57fe5b8152602001828152506001600060045481526020019081526020016000206000820151816000015560208201518160010160006101000a81548173ffffffffffffffffffffffffffffffffffffffff021916908373ffffffffffffffffffffffffffffffffffffffff1602179055506040820151816002015560608201518160030160006101000a81548160ff02191690836004811115611dc957fe5b02179055506080820151816004019080519060200190611dea9291906128c1565b509050506004547f11bc75e1c881a356fd788845fca53e42abfc6d0fcf1f28e90fc6b518d4163e1733604051808273ffffffffffffffffffffffffffffffffffffffff1673ffffffffffffffffffffffffffffffffffffffff16815260200191505060405180910390a2505050565b600660009054906101000a900473ffffffffffffffffffffffffffffffffffffffff1681565b6000803373ffffffffffffffffffffffffffffffffffffffff1673ffffffffffffffffffffffffffffffffffffffff16815260200190815260200160002060000160009054906101000a900473ffffffffffffffffffffffffffffffffffffffff1673ffffffffffffffffffffffffffffffffffffffff163373ffffffffffffffffffffffffffffffffffffffff1614611f81576040517f08c379a000000000000000000000000000000000000000000000000000000000815260040180806020018281038252601a8152602001807f53656e6465722068617320746f20626520612070617469656e7400000000000081525060200191505060405180910390fd5b6005600081548092919060010191905055506040518060a001604052808481526020018381526020018281526020016001151581526020016005548152506003600060055481526020019081526020016000206000820151816000019080519060200190611ff09291906128c1565b50602082015181600101908051906020019061200d9291906128c1565b50604082015181600201908051906020019061202a9291906128c1565b5060608201518160030160006101000a81548160ff021916908315150217905550608082015181600401559050506000803373ffffffffffffffffffffffffffffffffffffffff1673ffffffffffffffffffffffffffffffffffffffff1681526020019081526020016000206005016005549080600181540180825580915050906001820390600052602060002001600090919290919091505550505050565b60045481565b80600790805190602001906120e6929190612841565b5050565b6003602052806000526040600020600091509050806000018054600181600116156101000203166002900480601f0160208091040260200160405190810160405280929190818152602001828054600181600116156101000203166002900480156121965780601f1061216b57610100808354040283529160200191612196565b820191906000526020600020905b81548152906001019060200180831161217957829003601f168201915b505050505090806001018054600181600116156101000203166002900480601f0160208091040260200160405190810160405280929190818152602001828054600181600116156101000203166002900480156122345780601f1061220957610100808354040283529160200191612234565b820191906000526020600020905b81548152906001019060200180831161221757829003601f168201915b505050505090806002018054600181600116156101000203166002900480601f0160208091040260200160405190810160405280929190818152602001828054600181600116156101000203166002900480156122d25780601f106122a7576101008083540402835291602001916122d2565b820191906000526020600020905b8154815290600101906020018083116122b557829003601f168201915b5050505050908060030160009054906101000a900460ff16908060040154905085565b60606000808373ffffffffffffffffffffffffffffffffffffffff1673ffffffffffffffffffffffffffffffffffffffff16815260200190815260200160002060050180548060200260200160405190810160405280929190818152602001828054801561238257602002820191906000526020600020905b81548152602001906001019080831161236e575b50505050509050919050565b60026020528060005260406000206000915054906101000a900460ff1681565b6000803373ffffffffffffffffffffffffffffffffffffffff1673ffffffffffffffffffffffffffffffffffffffff16815260200190815260200160002060000160009054906101000a900473ffffffffffffffffffffffffffffffffffffffff1673ffffffffffffffffffffffffffffffffffffffff163373ffffffffffffffffffffffffffffffffffffffff1614156124b1576040517f08c379a00000000000000000000000000000000000000000000000000000000081526004018080602001828103825260198152602001807f50617469656e7420616c7265616479207369676e65642075700000000000000081525060200191505060405180910390fd5b6040518060e001604052803373ffffffffffffffffffffffffffffffffffffffff1681526020018781526020018681526020018560018111156124f057fe5b815260200184600581111561250157fe5b8152602001838152602001828152506000803373ffffffffffffffffffffffffffffffffffffffff1673ffffffffffffffffffffffffffffffffffffffff16815260200190815260200160002060008201518160000160006101000a81548173ffffffffffffffffffffffffffffffffffffffff021916908373ffffffffffffffffffffffffffffffffffffffff16021790555060208201518160010190805190602001906125b19291906128c1565b5060408201518160020190805190602001906125ce9291906128c1565b5060608201518160030160006101000a81548160ff021916908360018111156125f357fe5b021790555060808201518160030160016101000a81548160ff0219169083600581111561261c57fe5b021790555060a082015181600401908051906020019061263d9291906128c1565b5060c082015181600501908051906020019061265a929190612941565b50905050505050505050565b60011515600260003373ffffffffffffffffffffffffffffffffffffffff1673ffffffffffffffffffffffffffffffffffffffff16815260200190815260200160002060009054906101000a900460ff161515148061275157506000803373ffffffffffffffffffffffffffffffffffffffff1673ffffffffffffffffffffffffffffffffffffffff16815260200190815260200160002060000160009054906101000a900473ffffffffffffffffffffffffffffffffffffffff1673ffffffffffffffffffffffffffffffffffffffff163373ffffffffffffffffffffffffffffffffffffffff16145b61275a57600080fd5b6000831161276757600080fd5b60045483111561277657600080fd5b816001600085815260200190815260200160002060030160006101000a81548160ff021916908360048111156127a857fe5b0217905550806001600085815260200190815260200160002060040190805190602001906127d7929190612841565b50827faed36e024505e25c12abbd5805f9a03e43edc723e22f4f50bb4f14a6e9ef1ada33604051808273ffffffffffffffffffffffffffffffffffffffff1673ffffffffffffffffffffffffffffffffffffffff16815260200191505060405180910390a2505050565b828054600181600116156101000203166002900490600052602060002090601f016020900481019282601f1061288257805160ff19168380011785556128b0565b828001600101855582156128b0579182015b828111156128af578251825591602001919060010190612894565b5b5090506128bd919061298e565b5090565b828054600181600116156101000203166002900490600052602060002090601f016020900481019282601f1061290257805160ff1916838001178555612930565b82800160010185558215612930579182015b8281111561292f578251825591602001919060010190612914565b5b50905061293d919061298e565b5090565b82805482825590600052602060002090810192821561297d579160200282015b8281111561297c578251825591602001919060010190612961565b5b50905061298a919061298e565b5090565b6129b091905b808211156129ac576000816000905550600101612994565b5090565b9056fea265627a7a7231582067e97671c84d6d1e8cb3a9ccbf6f285d66ff9d716661f22945ef55f76b95b85a64736f6c63430005110032",
  "source": "pragma solidity ^0.5.0;\n\ncontract EMRContract {\n    enum SexType {\n        MALE,\n        FEMALE\n    }\n    enum MaritalType {\n        single,\n        married,\n        remarried,\n        separated,\n        divorced,\n        widowed\n    }\n    enum AppointmentStat {\n        CREATED,\n        APPROVED,\n        REJECTED,\n        BILLING,\n        CLOSE\n    }\n\n    struct Patient {\n        address client;\n        string fullname;\n        string dob;\n        SexType sex;\n        MaritalType marital;\n        string email;\n        uint256[] medicalreport;\n    }\n\n    struct Appointment {\n        uint256 index;\n        address patient;\n        uint256 datetime;\n        AppointmentStat stat;\n        string remark;\n    }\n\n    struct MedicalReport {\n        string docname;\n        string docpath;\n        string docdesp;\n        bool isActive;\n        uint256 index;\n    }\n\n    mapping(address => Patient) public patients;\n\n    mapping(uint256 => Appointment) public appointments;\n    mapping(address => bool) public administrator;\n\n    mapping(uint256 => MedicalReport) public medicalreports;\n\n    uint256 public AppointmentIndex;\n    uint256 public MedicalReportIndex;\n\n    address public owner;\n\n    string public version = \"0.0.1\";\n\n    event eAppointmentAdd(uint256 indexed index, address sender);\n\n    event eAppointmentUpdate(uint256 indexed index, address sender);\n\n    modifier isOwner() {\n        if (msg.sender == owner) _;\n    }\n\n    modifier isAdministrator(address _admin) {\n        if (administrator[_admin] == true) _;\n    }\n\n    constructor() public {\n        owner = msg.sender;\n        administrator[msg.sender] = true;\n    }\n\n    function UpdateVersion(string memory _version) public {\n        version = _version;\n    }\n\n    function SetAdministrator(address _admin) public {\n        require(msg.sender == owner);\n        require(!administrator[_admin]);\n\n        administrator[_admin] = true;\n    }\n\n    /*\n     * Sign Up Patients\n     */\n\n    function SignupPatient(\n        string memory _fullname,\n        string memory _dob,\n        SexType _sex,\n        MaritalType _marital,\n        string memory _email,\n        uint256[] memory _medicalreport\n    ) public {\n        require(\n            msg.sender != patients[msg.sender].client,\n            \"Patient already signed up\"\n        );\n\n        patients[msg.sender] = Patient(\n            msg.sender,\n            _fullname,\n            _dob,\n            _sex,\n            _marital,\n            _email,\n            _medicalreport\n        );\n    }\n\n    function PatientUpdate(\n        string memory _fullname,\n        string memory _dob,\n        SexType _sex,\n        MaritalType _marital,\n        string memory _email\n    ) public {\n        require(\n            msg.sender == patients[msg.sender].client,\n            \"Unauthorized access\"\n        );\n\n        patients[msg.sender].fullname = _fullname;\n        patients[msg.sender].dob = _dob;\n        patients[msg.sender].sex = _sex;\n        patients[msg.sender].marital = _marital;\n        patients[msg.sender].email = _email;\n    }\n\n    function AppointmentAdd(\n        uint256 _datetime,\n        AppointmentStat _stat,\n        string memory _remark\n    ) public {\n        require(msg.sender == patients[msg.sender].client);\n        require(_datetime > now);\n\n        AppointmentIndex++;\n\n        appointments[AppointmentIndex] = Appointment(\n            AppointmentIndex,\n            msg.sender,\n            _datetime,\n            _stat,\n            _remark\n        );\n\n        emit eAppointmentAdd(AppointmentIndex, msg.sender);\n    }\n\n    function AppointmentUpdate(\n        uint256 _AppointmentIndex,\n        AppointmentStat _stat,\n        string memory _remark\n    ) public {\n        require(\n            administrator[msg.sender] == true ||\n                msg.sender == patients[msg.sender].client\n        );\n        require(_AppointmentIndex > 0);\n        require(_AppointmentIndex <= AppointmentIndex);\n\n        appointments[_AppointmentIndex].stat = _stat;\n        appointments[_AppointmentIndex].remark = _remark;\n\n        emit eAppointmentUpdate(_AppointmentIndex, msg.sender);\n    }\n\n    function AppointmentGet() public view returns (uint256[] memory) {\n        uint256[] memory results = new uint256[](AppointmentIndex);\n        uint256 count = 0;\n        for (uint256 i = 1; i <= AppointmentIndex; i++) {\n            if (appointments[i].patient == msg.sender) {\n                results[count] = i;\n                count++;\n            }\n        }\n        // Resize the array to the actual count\n        uint256[] memory filteredResults = new uint256[](count);\n        for (uint256 j = 0; j < count; j++) {\n            filteredResults[j] = results[j];\n        }\n        return filteredResults;\n    }\n\n    function payment(address payable _receiver) public payable {\n        _receiver.transfer(msg.value);\n    }\n\n    function MedicalReportAdd(\n        string memory _docname,\n        string memory _docpath,\n        string memory _docdesp\n    ) public {\n        require(\n            msg.sender == patients[msg.sender].client,\n            \"Sender has to be a patient\"\n        );\n\n        MedicalReportIndex++;\n        medicalreports[MedicalReportIndex] = MedicalReport(\n            _docname,\n            _docpath,\n            _docdesp,\n            true,\n            MedicalReportIndex\n        );\n\n        patients[msg.sender].medicalreport.push(MedicalReportIndex);\n    }\n\n    function MedicalReportGet(\n        address _addr\n    ) public view returns (uint256[] memory) {\n        return patients[_addr].medicalreport;\n    }\n\n    function kill() public {\n        require(msg.sender == owner);\n        selfdestruct(msg.sender);\n    }\n}\n",
  "sourcePath": "/Users/aoshen/Documents/01 Projects/Playground/Blockchain-EMR/contracts/EMRContract.sol",
  "compiler": {
    "name": "solc",
    "version": "0.5.17+commit.d19bba13.Emscripten.clang"
  },
  "schemaVersion": "3.4.16",
  "updatedAt": "2024-10-27T15:29:10.396Z",
  "networkType": "ethereum",
  "devdoc": {
    "methods": {}
  },
  "userdoc": {
    "methods": {}
  }
}